{
    "address": "0x7011b8A32101ed999c062ee91B4a5241811dC266",
    "abi": [
        {
            "inputs": [
                {
                    "internalType": "address",
                    "name": "priceFeedAddress",
                    "type": "address"
                }
            ],
            "stateMutability": "nonpayable",
            "type": "constructor"
        },
        {
            "stateMutability": "payable",
            "type": "fallback"
        },
        {
            "inputs": [
                {
                    "internalType": "address",
                    "name": "",
                    "type": "address"
                }
            ],
            "name": "addressToAmountFunded",
            "outputs": [
                {
                    "internalType": "uint256",
                    "name": "",
                    "type": "uint256"
                }
            ],
            "stateMutability": "view",
            "type": "function"
        },
        {
            "inputs": [],
            "name": "fund",
            "outputs": [],
            "stateMutability": "payable",
            "type": "function"
        },
        {
            "inputs": [
                {
                    "internalType": "uint256",
                    "name": "",
                    "type": "uint256"
                }
            ],
            "name": "funders",
            "outputs": [
                {
                    "internalType": "address",
                    "name": "",
                    "type": "address"
                }
            ],
            "stateMutability": "view",
            "type": "function"
        },
        {
            "inputs": [],
            "name": "minimumUsd",
            "outputs": [
                {
                    "internalType": "uint256",
                    "name": "",
                    "type": "uint256"
                }
            ],
            "stateMutability": "view",
            "type": "function"
        },
        {
            "inputs": [],
            "name": "number",
            "outputs": [
                {
                    "internalType": "uint256",
                    "name": "",
                    "type": "uint256"
                }
            ],
            "stateMutability": "view",
            "type": "function"
        },
        {
            "inputs": [],
            "name": "owner",
            "outputs": [
                {
                    "internalType": "address",
                    "name": "",
                    "type": "address"
                }
            ],
            "stateMutability": "view",
            "type": "function"
        },
        {
            "inputs": [],
            "name": "priceFeed",
            "outputs": [
                {
                    "internalType": "contract AggregatorV3Interface",
                    "name": "",
                    "type": "address"
                }
            ],
            "stateMutability": "view",
            "type": "function"
        },
        {
            "inputs": [],
            "name": "withdraw",
            "outputs": [],
            "stateMutability": "nonpayable",
            "type": "function"
        },
        {
            "stateMutability": "payable",
            "type": "receive"
        }
    ],
    "transactionHash": "0x9bbcd1b028b55505307bbc4194d763d296bd59022f6158b888b4629f0d6a4242",
    "args": [
        "0x694AA1769357215DE4FAC081bf1f309aDC325306"
    ],
    "numDeployments": 2,
    "solcInputHash": "789044e6334b4c190a46c133cb02eef2",
    "bytecode": "0x60806040526802b5e3af16b18800006001553480156200001e57600080fd5b50604051620010ed380380620010ed833981810160405281019062000044919062000137565b33600460006101000a81548173ffffffffffffffffffffffffffffffffffffffff021916908373ffffffffffffffffffffffffffffffffffffffff16021790555080600560006101000a81548173ffffffffffffffffffffffffffffffffffffffff021916908373ffffffffffffffffffffffffffffffffffffffff1602179055505062000169565b600080fd5b600073ffffffffffffffffffffffffffffffffffffffff82169050919050565b6000620000ff82620000d2565b9050919050565b6200011181620000f2565b81146200011d57600080fd5b50565b600081519050620001318162000106565b92915050565b60006020828403121562000150576200014f620000cd565b5b6000620001608482850162000120565b91505092915050565b610f7480620001796000396000f3fe60806040526004361061007f5760003560e01c80638381f58a1161004e5780638381f58a146101425780638da5cb5b1461016d578063b60d428814610198578063dc0d3dff146101a25761008e565b8063098de820146100985780633ccfd60b146100c35780633e47d6f3146100da578063741bef1a146101175761008e565b3661008e5761008c6101df565b005b6100966101df565b005b3480156100a457600080fd5b506100ad610489565b6040516100ba9190610864565b60405180910390f35b3480156100cf57600080fd5b506100d861048f565b005b3480156100e657600080fd5b5061010160048036038101906100fc91906108e2565b61062e565b60405161010e9190610864565b60405180910390f35b34801561012357600080fd5b5061012c610646565b604051610139919061096e565b60405180910390f35b34801561014e57600080fd5b5061015761066c565b6040516101649190610864565b60405180910390f35b34801561017957600080fd5b50610182610672565b60405161018f9190610998565b60405180910390f35b6101a06101df565b005b3480156101ae57600080fd5b506101c960048036038101906101c491906109df565b610698565b6040516101d69190610998565b60405180910390f35b600560008190555060015461021f600560009054906101000a900473ffffffffffffffffffffffffffffffffffffffff16346106d790919063ffffffff16565b1015610260576040517f08c379a000000000000000000000000000000000000000000000000000000000815260040161025790610a69565b60405180910390fd5b6002339080600181540180825580915050600190039060005260206000200160009091909190916101000a81548173ffffffffffffffffffffffffffffffffffffffff021916908373ffffffffffffffffffffffffffffffffffffffff16021790555034600360003373ffffffffffffffffffffffffffffffffffffffff1673ffffffffffffffffffffffffffffffffffffffff16815260200190815260200160002060008282546103129190610ab8565b925050819055503373ffffffffffffffffffffffffffffffffffffffff166108fc479081150290604051600060405180830381858888f1935050505015801561035f573d6000803e3d6000fd5b5060003373ffffffffffffffffffffffffffffffffffffffff166108fc479081150290604051600060405180830381858888f193505050509050806103d9576040517f08c379a00000000000000000000000000000000000000000000000000000000081526004016103d090610b38565b60405180910390fd5b60003373ffffffffffffffffffffffffffffffffffffffff16476040516103ff90610b89565b60006040518083038185875af1925050503d806000811461043c576040519150601f19603f3d011682016040523d82523d6000602084013e610441565b606091505b5050905080610485576040517f08c379a000000000000000000000000000000000000000000000000000000000815260040161047c90610bea565b60405180910390fd5b5050565b60015481565b600460009054906101000a900473ffffffffffffffffffffffffffffffffffffffff1673ffffffffffffffffffffffffffffffffffffffff163373ffffffffffffffffffffffffffffffffffffffff161461051f576040517f08c379a000000000000000000000000000000000000000000000000000000000815260040161051690610c56565b60405180910390fd5b60005b6002805490508110156105cb5760006002828154811061054557610544610c76565b5b9060005260206000200160009054906101000a900473ffffffffffffffffffffffffffffffffffffffff1690506000600360008373ffffffffffffffffffffffffffffffffffffffff1673ffffffffffffffffffffffffffffffffffffffff168152602001908152602001600020819055505080806105c390610ca5565b915050610522565b50600067ffffffffffffffff8111156105e7576105e6610ced565b5b6040519080825280602002602001820160405280156106155781602001602082028036833780820191505090505b506002908051906020019061062b9291906107a4565b50565b60036020528060005260406000206000915090505481565b600560009054906101000a900473ffffffffffffffffffffffffffffffffffffffff1681565b60005481565b600460009054906101000a900473ffffffffffffffffffffffffffffffffffffffff1681565b600281815481106106a857600080fd5b906000526020600020016000915054906101000a900473ffffffffffffffffffffffffffffffffffffffff1681565b6000806106e383610713565b90506000670de0b6b3a764000082866106fc9190610d1c565b6107069190610d8d565b9050809250505092915050565b6000808273ffffffffffffffffffffffffffffffffffffffff1663feaf968c6040518163ffffffff1660e01b815260040160a060405180830381865afa158015610761573d6000803e3d6000fd5b505050506040513d601f19601f820116820180604052508101906107859190610e4b565b5050509150506402540be4008161079c9190610ec6565b915050919050565b82805482825590600052602060002090810192821561081d579160200282015b8281111561081c5782518260006101000a81548173ffffffffffffffffffffffffffffffffffffffff021916908373ffffffffffffffffffffffffffffffffffffffff160217905550916020019190600101906107c4565b5b50905061082a919061082e565b5090565b5b8082111561084757600081600090555060010161082f565b5090565b6000819050919050565b61085e8161084b565b82525050565b60006020820190506108796000830184610855565b92915050565b600080fd5b600073ffffffffffffffffffffffffffffffffffffffff82169050919050565b60006108af82610884565b9050919050565b6108bf816108a4565b81146108ca57600080fd5b50565b6000813590506108dc816108b6565b92915050565b6000602082840312156108f8576108f761087f565b5b6000610906848285016108cd565b91505092915050565b6000819050919050565b600061093461092f61092a84610884565b61090f565b610884565b9050919050565b600061094682610919565b9050919050565b60006109588261093b565b9050919050565b6109688161094d565b82525050565b6000602082019050610983600083018461095f565b92915050565b610992816108a4565b82525050565b60006020820190506109ad6000830184610989565b92915050565b6109bc8161084b565b81146109c757600080fd5b50565b6000813590506109d9816109b3565b92915050565b6000602082840312156109f5576109f461087f565b5b6000610a03848285016109ca565b91505092915050565b600082825260208201905092915050565b7f4469646e27742073656e6420656e6f7567682100000000000000000000000000600082015250565b6000610a53601383610a0c565b9150610a5e82610a1d565b602082019050919050565b60006020820190508181036000830152610a8281610a46565b9050919050565b7f4e487b7100000000000000000000000000000000000000000000000000000000600052601160045260246000fd5b6000610ac38261084b565b9150610ace8361084b565b9250828201905080821115610ae657610ae5610a89565b5b92915050565b7f53656e64206661696c6564000000000000000000000000000000000000000000600082015250565b6000610b22600b83610a0c565b9150610b2d82610aec565b602082019050919050565b60006020820190508181036000830152610b5181610b15565b9050919050565b600081905092915050565b50565b6000610b73600083610b58565b9150610b7e82610b63565b600082019050919050565b6000610b9482610b66565b9150819050919050565b7f43616c6c206661696c6564000000000000000000000000000000000000000000600082015250565b6000610bd4600b83610a0c565b9150610bdf82610b9e565b602082019050919050565b60006020820190508181036000830152610c0381610bc7565b9050919050565b7f53656e646572206973206e6f7420746865206f776e6572000000000000000000600082015250565b6000610c40601783610a0c565b9150610c4b82610c0a565b602082019050919050565b60006020820190508181036000830152610c6f81610c33565b9050919050565b7f4e487b7100000000000000000000000000000000000000000000000000000000600052603260045260246000fd5b6000610cb08261084b565b91507fffffffffffffffffffffffffffffffffffffffffffffffffffffffffffffffff8203610ce257610ce1610a89565b5b600182019050919050565b7f4e487b7100000000000000000000000000000000000000000000000000000000600052604160045260246000fd5b6000610d278261084b565b9150610d328361084b565b9250828202610d408161084b565b91508282048414831517610d5757610d56610a89565b5b5092915050565b7f4e487b7100000000000000000000000000000000000000000000000000000000600052601260045260246000fd5b6000610d988261084b565b9150610da38361084b565b925082610db357610db2610d5e565b5b828204905092915050565b600069ffffffffffffffffffff82169050919050565b610ddd81610dbe565b8114610de857600080fd5b50565b600081519050610dfa81610dd4565b92915050565b6000819050919050565b610e1381610e00565b8114610e1e57600080fd5b50565b600081519050610e3081610e0a565b92915050565b600081519050610e45816109b3565b92915050565b600080600080600060a08688031215610e6757610e6661087f565b5b6000610e7588828901610deb565b9550506020610e8688828901610e21565b9450506040610e9788828901610e36565b9350506060610ea888828901610e36565b9250506080610eb988828901610deb565b9150509295509295909350565b6000610ed182610e00565b9150610edc83610e00565b9250828202610eea81610e00565b91507f80000000000000000000000000000000000000000000000000000000000000008414600084121615610f2257610f21610a89565b5b8282058414831517610f3757610f36610a89565b5b509291505056fea26469706673582212205baab0310199b4c0b531df05df6bd25be5717c223534417e17423f419353d7b864736f6c63430008120033",
    "devdoc": {
        "author": "Praveen Sheoran",
        "details": "This implements price feeds for our library",
        "kind": "dev",
        "methods": {},
        "title": "A contract for funding",
        "version": 1
    },
    "userdoc": {
        "kind": "user",
        "methods": {},
        "notice": "A demo",
        "version": 1
    },
    "storageLayout": {
        "storage": [
            {
                "astId": 53,
                "contract": "contracts/FundMe.sol:FundMe",
                "label": "number",
                "offset": 0,
                "slot": "0",
                "type": "t_uint256"
            },
            {
                "astId": 58,
                "contract": "contracts/FundMe.sol:FundMe",
                "label": "minimumUsd",
                "offset": 0,
                "slot": "1",
                "type": "t_uint256"
            },
            {
                "astId": 61,
                "contract": "contracts/FundMe.sol:FundMe",
                "label": "funders",
                "offset": 0,
                "slot": "2",
                "type": "t_array(t_address)dyn_storage"
            },
            {
                "astId": 65,
                "contract": "contracts/FundMe.sol:FundMe",
                "label": "addressToAmountFunded",
                "offset": 0,
                "slot": "3",
                "type": "t_mapping(t_address,t_uint256)"
            },
            {
                "astId": 70,
                "contract": "contracts/FundMe.sol:FundMe",
                "label": "owner",
                "offset": 0,
                "slot": "4",
                "type": "t_address"
            },
            {
                "astId": 73,
                "contract": "contracts/FundMe.sol:FundMe",
                "label": "priceFeed",
                "offset": 0,
                "slot": "5",
                "type": "t_contract(AggregatorV3Interface)45"
            }
        ],
        "types": {
            "t_address": {
                "encoding": "inplace",
                "label": "address",
                "numberOfBytes": "20"
            },
            "t_array(t_address)dyn_storage": {
                "base": "t_address",
                "encoding": "dynamic_array",
                "label": "address[]",
                "numberOfBytes": "32"
            },
            "t_contract(AggregatorV3Interface)45": {
                "encoding": "inplace",
                "label": "contract AggregatorV3Interface",
                "numberOfBytes": "20"
            },
            "t_mapping(t_address,t_uint256)": {
                "encoding": "mapping",
                "key": "t_address",
                "label": "mapping(address => uint256)",
                "numberOfBytes": "32",
                "value": "t_uint256"
            },
            "t_uint256": {
                "encoding": "inplace",
                "label": "uint256",
                "numberOfBytes": "32"
            }
        }
    }
}